{
  "contractName": "UserRoleManager",
  "abi": [
    {
      "anonymous": false,
      "inputs": [
        {
          "indexed": true,
          "internalType": "address",
          "name": "user",
          "type": "address"
        },
        {
          "indexed": false,
          "internalType": "enum UserRoleManager.Role",
          "name": "role",
          "type": "uint8"
        }
      ],
      "name": "RoleUpdated",
      "type": "event"
    },
    {
      "inputs": [
        {
          "internalType": "address",
          "name": "",
          "type": "address"
        }
      ],
      "name": "userRoles",
      "outputs": [
        {
          "internalType": "enum UserRoleManager.Role",
          "name": "",
          "type": "uint8"
        }
      ],
      "stateMutability": "view",
      "type": "function"
    },
    {
      "inputs": [
        {
          "internalType": "address",
          "name": "_user",
          "type": "address"
        },
        {
          "internalType": "string",
          "name": "_role",
          "type": "string"
        }
      ],
      "name": "updateRole",
      "outputs": [],
      "stateMutability": "nonpayable",
      "type": "function"
    },
    {
      "inputs": [
        {
          "internalType": "address",
          "name": "_user",
          "type": "address"
        }
      ],
      "name": "getRole",
      "outputs": [
        {
          "internalType": "string",
          "name": "",
          "type": "string"
        }
      ],
      "stateMutability": "view",
      "type": "function"
    }
  ],
  "bytecode": "0x608060405234801561001057600080fd5b506105e7806100206000396000f3fe608060405234801561001057600080fd5b50600436106100415760003560e01c8063442767331461004657806374d5e1001461006f578063775c6f401461008f575b600080fd5b61005961005436600461039b565b6100a4565b60405161006691906104e3565b60405180910390f35b61008261007d36600461039b565b61019f565b60405161006691906104bb565b6100a261009d3660046103bc565b6101b4565b005b606060016001600160a01b03831660009081526020819052604090205460ff1660028111156100e357634e487b7160e01b600052602160045260246000fd5b1415610112575060408051808201909152600c81526b2a30b9b59021b932b0ba37b960a11b602082015261019a565b60026001600160a01b03831660009081526020819052604090205460ff16600281111561014f57634e487b7160e01b600052602160045260246000fd5b141561017d575060408051808201909152600b81526a2a30b9b59029b7b63b32b960a91b602082015261019a565b506040805180820190915260048152634e6f6e6560e01b60208201525b919050565b60006020819052908152604090205460ff1681565b6001600160a01b03821660009081526020819052604081205460ff1660028111156101ef57634e487b7160e01b600052602160045260246000fd5b146102155760405162461bcd60e51b815260040161020c9061053c565b60405180910390fd5b604051602001610224906104a3565b604051602081830303815290604052805190602001208160405160200161024b9190610470565b604051602081830303815290604052805190602001201415610296576001600160a01b038216600090815260208190526040902080546001919060ff191682805b021790555061032a565b6040516020016102a59061048c565b60405160208183030381529060405280519060200120816040516020016102cc9190610470565b604051602081830303815290604052805190602001201415610312576001600160a01b038216600090815260208190526040902080546002919060ff191660018361028c565b60405162461bcd60e51b815260040161020c90610516565b6001600160a01b038216600081815260208190526040908190205490517fc3f8f61911a1537261f77e2703626e158e299a98e341024ecaa26bbd1d884c64916103789160ff909116906104bb565b60405180910390a25050565b80356001600160a01b038116811461019a57600080fd5b6000602082840312156103ac578081fd5b6103b582610384565b9392505050565b600080604083850312156103ce578081fd5b6103d783610384565b915060208084013567ffffffffffffffff808211156103f4578384fd5b818601915086601f830112610407578384fd5b8135818111156104195761041961059b565b604051601f8201601f191681018501838111828210171561043c5761043c61059b565b6040528181528382018501891015610452578586fd5b81858501868301378585838301015280955050505050509250929050565b6000825161048281846020870161056b565b9190910192915050565b6a2a30b9b59029b7b63b32b960a91b8152600b0190565b6b2a30b9b59021b932b0ba37b960a11b8152600c0190565b60208101600383106104dd57634e487b7160e01b600052602160045260246000fd5b91905290565b600060208252825180602084015261050281604085016020870161056b565b601f01601f19169190910160400192915050565b6020808252600c908201526b496e76616c696420726f6c6560a01b604082015260600190565b602080825260159082015274155cd95c881c9bdb1948185b1c9958591e481cd95d605a1b604082015260600190565b60005b8381101561058657818101518382015260200161056e565b83811115610595576000848401525b50505050565b634e487b7160e01b600052604160045260246000fdfea2646970667358221220c0e4862a003bab3e4202e7f94295f3a121a295972947769010441a482bc956cd64736f6c63430008000033",
  "immutableReferences": {},
  "source": "// SPDX-License-Identifier: MIT\r\npragma solidity ^0.8.0;\r\n\r\ncontract UserRoleManager {\r\n    enum Role { None, TaskCreator, TaskSolver }\r\n\r\n    mapping(address => Role) public userRoles;\r\n\r\n    event RoleUpdated(address indexed user, Role role);\r\n\r\n    function updateRole(address _user, string memory _role) external {\r\n        require(userRoles[_user] == Role.None, \"User role already set\");\r\n\r\n        if (keccak256(abi.encodePacked(_role)) == keccak256(abi.encodePacked(\"Task Creator\"))) {\r\n            userRoles[_user] = Role.TaskCreator;\r\n        } else if (keccak256(abi.encodePacked(_role)) == keccak256(abi.encodePacked(\"Task Solver\"))) {\r\n            userRoles[_user] = Role.TaskSolver;\r\n        } else {\r\n            revert(\"Invalid role\");\r\n        }\r\n\r\n        emit RoleUpdated(_user, userRoles[_user]);\r\n    }\r\n\r\n    function getRole(address _user) external view returns (string memory) {\r\n        if (userRoles[_user] == Role.TaskCreator) {\r\n            return \"Task Creator\";\r\n        } else if (userRoles[_user] == Role.TaskSolver) {\r\n            return \"Task Solver\";\r\n        } else {\r\n            return \"None\";\r\n        }\r\n    }\r\n}\r\n",
  "sourcePath": "C:\\Users\\Pratik\\Desktop\\taskallocation\\taskallocation\\contracts\\userrole.sol",
  "compiler": {
    "name": "solc",
    "version": "0.8.0+commit.c7dfd78e.Emscripten.clang"
  },
  "schemaVersion": "3.4.16",
  "updatedAt": "2025-06-06T12:23:11.493Z",
  "devdoc": {
    "kind": "dev",
    "methods": {},
    "version": 1
  },
  "userdoc": {
    "kind": "user",
    "methods": {},
    "version": 1
  }
}