{
  "contractName": "TaskManager",
  "abi": [
    {
      "anonymous": false,
      "inputs": [
        {
          "indexed": false,
          "internalType": "address",
          "name": "solver",
          "type": "address"
        },
        {
          "indexed": false,
          "internalType": "uint256",
          "name": "amount",
          "type": "uint256"
        }
      ],
      "name": "RewardWithdrawn",
      "type": "event"
    },
    {
      "anonymous": false,
      "inputs": [
        {
          "indexed": false,
          "internalType": "uint256",
          "name": "taskId",
          "type": "uint256"
        },
        {
          "indexed": false,
          "internalType": "address",
          "name": "solver",
          "type": "address"
        }
      ],
      "name": "TaskApplied",
      "type": "event"
    },
    {
      "anonymous": false,
      "inputs": [
        {
          "indexed": false,
          "internalType": "uint256",
          "name": "taskId",
          "type": "uint256"
        },
        {
          "indexed": false,
          "internalType": "string",
          "name": "taskName",
          "type": "string"
        },
        {
          "indexed": false,
          "internalType": "address",
          "name": "creator",
          "type": "address"
        }
      ],
      "name": "TaskCreated",
      "type": "event"
    },
    {
      "anonymous": false,
      "inputs": [
        {
          "indexed": false,
          "internalType": "uint256",
          "name": "taskId",
          "type": "uint256"
        },
        {
          "indexed": false,
          "internalType": "string",
          "name": "message",
          "type": "string"
        }
      ],
      "name": "TaskModificationSuggested",
      "type": "event"
    },
    {
      "anonymous": false,
      "inputs": [
        {
          "indexed": false,
          "internalType": "uint256",
          "name": "taskId",
          "type": "uint256"
        }
      ],
      "name": "TaskRejected",
      "type": "event"
    },
    {
      "anonymous": false,
      "inputs": [
        {
          "indexed": false,
          "internalType": "uint256",
          "name": "taskId",
          "type": "uint256"
        },
        {
          "indexed": false,
          "internalType": "address",
          "name": "solver",
          "type": "address"
        }
      ],
      "name": "TaskRequestApproved",
      "type": "event"
    },
    {
      "anonymous": false,
      "inputs": [
        {
          "indexed": false,
          "internalType": "uint256",
          "name": "taskId",
          "type": "uint256"
        },
        {
          "indexed": false,
          "internalType": "address",
          "name": "solver",
          "type": "address"
        }
      ],
      "name": "TaskRequestRejected",
      "type": "event"
    },
    {
      "anonymous": false,
      "inputs": [
        {
          "indexed": false,
          "internalType": "uint256",
          "name": "taskId",
          "type": "uint256"
        },
        {
          "indexed": false,
          "internalType": "address",
          "name": "solver",
          "type": "address"
        }
      ],
      "name": "TaskReviewApproved",
      "type": "event"
    },
    {
      "anonymous": false,
      "inputs": [
        {
          "indexed": false,
          "internalType": "address",
          "name": "solver",
          "type": "address"
        },
        {
          "indexed": false,
          "internalType": "uint256",
          "name": "reward",
          "type": "uint256"
        }
      ],
      "name": "TaskRewardStored",
      "type": "event"
    },
    {
      "anonymous": false,
      "inputs": [
        {
          "indexed": false,
          "internalType": "uint256",
          "name": "taskId",
          "type": "uint256"
        },
        {
          "indexed": false,
          "internalType": "string",
          "name": "newStatus",
          "type": "string"
        }
      ],
      "name": "TaskStatusUpdated",
      "type": "event"
    },
    {
      "anonymous": false,
      "inputs": [
        {
          "indexed": false,
          "internalType": "uint256",
          "name": "taskId",
          "type": "uint256"
        },
        {
          "indexed": false,
          "internalType": "string",
          "name": "ipfsHash",
          "type": "string"
        },
        {
          "indexed": false,
          "internalType": "uint256",
          "name": "timestamp",
          "type": "uint256"
        }
      ],
      "name": "TaskSubmitted",
      "type": "event"
    },
    {
      "inputs": [
        {
          "internalType": "uint256",
          "name": "",
          "type": "uint256"
        }
      ],
      "name": "modificationMessages",
      "outputs": [
        {
          "internalType": "string",
          "name": "",
          "type": "string"
        }
      ],
      "stateMutability": "view",
      "type": "function",
      "constant": true
    },
    {
      "inputs": [
        {
          "internalType": "address",
          "name": "",
          "type": "address"
        }
      ],
      "name": "solverRewardBalance",
      "outputs": [
        {
          "internalType": "uint256",
          "name": "",
          "type": "uint256"
        }
      ],
      "stateMutability": "view",
      "type": "function",
      "constant": true
    },
    {
      "inputs": [
        {
          "internalType": "address",
          "name": "",
          "type": "address"
        }
      ],
      "name": "solverTaskCount",
      "outputs": [
        {
          "internalType": "uint256",
          "name": "",
          "type": "uint256"
        }
      ],
      "stateMutability": "view",
      "type": "function",
      "constant": true
    },
    {
      "inputs": [
        {
          "internalType": "uint256",
          "name": "",
          "type": "uint256"
        },
        {
          "internalType": "uint256",
          "name": "",
          "type": "uint256"
        }
      ],
      "name": "taskSubmissions",
      "outputs": [
        {
          "internalType": "string",
          "name": "",
          "type": "string"
        }
      ],
      "stateMutability": "view",
      "type": "function",
      "constant": true
    },
    {
      "inputs": [],
      "name": "totalRewardsHeld",
      "outputs": [
        {
          "internalType": "uint256",
          "name": "",
          "type": "uint256"
        }
      ],
      "stateMutability": "view",
      "type": "function",
      "constant": true
    },
    {
      "inputs": [
        {
          "internalType": "string",
          "name": "_taskName",
          "type": "string"
        },
        {
          "internalType": "string",
          "name": "_taskDescription",
          "type": "string"
        },
        {
          "internalType": "uint256",
          "name": "_deadlineTimestamp",
          "type": "uint256"
        },
        {
          "internalType": "uint256",
          "name": "_rewards",
          "type": "uint256"
        }
      ],
      "name": "createTask",
      "outputs": [],
      "stateMutability": "payable",
      "type": "function",
      "payable": true
    },
    {
      "inputs": [
        {
          "internalType": "uint256",
          "name": "_taskId",
          "type": "uint256"
        }
      ],
      "name": "applyForTask",
      "outputs": [],
      "stateMutability": "nonpayable",
      "type": "function"
    },
    {
      "inputs": [
        {
          "internalType": "uint256",
          "name": "_taskId",
          "type": "uint256"
        },
        {
          "internalType": "address",
          "name": "_solver",
          "type": "address"
        }
      ],
      "name": "approveRequest",
      "outputs": [],
      "stateMutability": "nonpayable",
      "type": "function"
    },
    {
      "inputs": [
        {
          "internalType": "uint256",
          "name": "_taskId",
          "type": "uint256"
        },
        {
          "internalType": "address",
          "name": "_solver",
          "type": "address"
        }
      ],
      "name": "rejectRequest",
      "outputs": [],
      "stateMutability": "nonpayable",
      "type": "function"
    },
    {
      "inputs": [],
      "name": "getAllTasks",
      "outputs": [
        {
          "internalType": "uint256[]",
          "name": "",
          "type": "uint256[]"
        },
        {
          "internalType": "string[]",
          "name": "",
          "type": "string[]"
        },
        {
          "internalType": "uint256[]",
          "name": "",
          "type": "uint256[]"
        },
        {
          "internalType": "uint256[]",
          "name": "",
          "type": "uint256[]"
        },
        {
          "internalType": "string[]",
          "name": "",
          "type": "string[]"
        },
        {
          "internalType": "address[]",
          "name": "",
          "type": "address[]"
        },
        {
          "internalType": "string[]",
          "name": "",
          "type": "string[]"
        }
      ],
      "stateMutability": "view",
      "type": "function",
      "constant": true
    },
    {
      "inputs": [
        {
          "internalType": "uint256",
          "name": "_taskId",
          "type": "uint256"
        }
      ],
      "name": "getTaskRequestsForCreator",
      "outputs": [
        {
          "components": [
            {
              "internalType": "uint256",
              "name": "taskId",
              "type": "uint256"
            },
            {
              "internalType": "address",
              "name": "solver",
              "type": "address"
            },
            {
              "internalType": "string",
              "name": "status",
              "type": "string"
            },
            {
              "internalType": "address",
              "name": "creator",
              "type": "address"
            }
          ],
          "internalType": "struct TaskManager.TaskRequest[]",
          "name": "",
          "type": "tuple[]"
        }
      ],
      "stateMutability": "view",
      "type": "function",
      "constant": true
    },
    {
      "inputs": [
        {
          "internalType": "address",
          "name": "_creator",
          "type": "address"
        }
      ],
      "name": "getAllRequestsForCreator",
      "outputs": [
        {
          "components": [
            {
              "internalType": "uint256",
              "name": "taskId",
              "type": "uint256"
            },
            {
              "internalType": "address",
              "name": "solver",
              "type": "address"
            },
            {
              "internalType": "string",
              "name": "status",
              "type": "string"
            },
            {
              "internalType": "address",
              "name": "creator",
              "type": "address"
            }
          ],
          "internalType": "struct TaskManager.TaskRequest[]",
          "name": "",
          "type": "tuple[]"
        }
      ],
      "stateMutability": "view",
      "type": "function",
      "constant": true
    },
    {
      "inputs": [
        {
          "internalType": "address",
          "name": "_solver",
          "type": "address"
        }
      ],
      "name": "getApprovedTasksForSolver",
      "outputs": [
        {
          "internalType": "uint256[]",
          "name": "",
          "type": "uint256[]"
        }
      ],
      "stateMutability": "view",
      "type": "function",
      "constant": true
    },
    {
      "inputs": [
        {
          "internalType": "uint256",
          "name": "_taskId",
          "type": "uint256"
        },
        {
          "internalType": "string",
          "name": "_newStatus",
          "type": "string"
        }
      ],
      "name": "updateTaskStatus",
      "outputs": [],
      "stateMutability": "nonpayable",
      "type": "function"
    },
    {
      "inputs": [
        {
          "internalType": "uint256",
          "name": "_taskId",
          "type": "uint256"
        },
        {
          "internalType": "string",
          "name": "_ipfsHash",
          "type": "string"
        }
      ],
      "name": "submitTask",
      "outputs": [],
      "stateMutability": "nonpayable",
      "type": "function"
    },
    {
      "inputs": [
        {
          "internalType": "address",
          "name": "_solver",
          "type": "address"
        }
      ],
      "name": "getSolverReward",
      "outputs": [
        {
          "internalType": "uint256",
          "name": "",
          "type": "uint256"
        }
      ],
      "stateMutability": "view",
      "type": "function",
      "constant": true
    },
    {
      "inputs": [
        {
          "internalType": "uint256",
          "name": "_taskId",
          "type": "uint256"
        }
      ],
      "name": "getReviewTasksForCreator",
      "outputs": [
        {
          "internalType": "string",
          "name": "",
          "type": "string"
        },
        {
          "internalType": "address",
          "name": "",
          "type": "address"
        },
        {
          "internalType": "string",
          "name": "",
          "type": "string"
        }
      ],
      "stateMutability": "view",
      "type": "function",
      "constant": true
    },
    {
      "inputs": [
        {
          "internalType": "address",
          "name": "_creator",
          "type": "address"
        }
      ],
      "name": "getSubmittedTasksForCreator",
      "outputs": [
        {
          "internalType": "uint256[]",
          "name": "",
          "type": "uint256[]"
        }
      ],
      "stateMutability": "view",
      "type": "function",
      "constant": true
    },
    {
      "inputs": [
        {
          "internalType": "uint256",
          "name": "_taskId",
          "type": "uint256"
        }
      ],
      "name": "approveTaskSubmission",
      "outputs": [],
      "stateMutability": "nonpayable",
      "type": "function"
    },
    {
      "inputs": [
        {
          "internalType": "address",
          "name": "_solver",
          "type": "address"
        }
      ],
      "name": "getCompletedTasksForSolver",
      "outputs": [
        {
          "internalType": "uint256[]",
          "name": "",
          "type": "uint256[]"
        }
      ],
      "stateMutability": "view",
      "type": "function",
      "constant": true
    },
    {
      "inputs": [
        {
          "internalType": "uint256",
          "name": "_taskId",
          "type": "uint256"
        },
        {
          "internalType": "string",
          "name": "message",
          "type": "string"
        },
        {
          "internalType": "uint256",
          "name": "newDeadline",
          "type": "uint256"
        }
      ],
      "name": "suggestModificationWithDeadline",
      "outputs": [],
      "stateMutability": "nonpayable",
      "type": "function"
    },
    {
      "inputs": [
        {
          "internalType": "uint256",
          "name": "_taskId",
          "type": "uint256"
        },
        {
          "internalType": "uint256",
          "name": "newDeadline",
          "type": "uint256"
        }
      ],
      "name": "rejectTaskSubmissionWithDeadline",
      "outputs": [],
      "stateMutability": "nonpayable",
      "type": "function"
    },
    {
      "inputs": [
        {
          "internalType": "uint256",
          "name": "_taskId",
          "type": "uint256"
        }
      ],
      "name": "getSubmissionHistory",
      "outputs": [
        {
          "internalType": "string[]",
          "name": "",
          "type": "string[]"
        },
        {
          "internalType": "uint256[]",
          "name": "",
          "type": "uint256[]"
        }
      ],
      "stateMutability": "view",
      "type": "function",
      "constant": true
    },
    {
      "inputs": [
        {
          "internalType": "uint256",
          "name": "amount",
          "type": "uint256"
        }
      ],
      "name": "withdrawPartialReward",
      "outputs": [],
      "stateMutability": "nonpayable",
      "type": "function"
    },
    {
      "inputs": [
        {
          "internalType": "address",
          "name": "solver",
          "type": "address"
        }
      ],
      "name": "getRewardBalance",
      "outputs": [
        {
          "internalType": "uint256",
          "name": "",
          "type": "uint256"
        }
      ],
      "stateMutability": "view",
      "type": "function",
      "constant": true
    },
    {
      "inputs": [
        {
          "internalType": "address",
          "name": "solver",
          "type": "address"
        },
        {
          "internalType": "uint256",
          "name": "rewardAmount",
          "type": "uint256"
        }
      ],
      "name": "rewardSolver",
      "outputs": [],
      "stateMutability": "nonpayable",
      "type": "function"
    },
    {
      "inputs": [
        {
          "internalType": "uint256",
          "name": "_taskId",
          "type": "uint256"
        }
      ],
      "name": "getTask",
      "outputs": [
        {
          "components": [
            {
              "internalType": "uint256",
              "name": "taskId",
              "type": "uint256"
            },
            {
              "internalType": "string",
              "name": "taskName",
              "type": "string"
            },
            {
              "internalType": "string",
              "name": "taskDescription",
              "type": "string"
            },
            {
              "internalType": "uint256",
              "name": "deadline",
              "type": "uint256"
            },
            {
              "internalType": "uint256",
              "name": "rewards",
              "type": "uint256"
            },
            {
              "internalType": "string",
              "name": "status",
              "type": "string"
            },
            {
              "internalType": "address",
              "name": "creator",
              "type": "address"
            },
            {
              "internalType": "address",
              "name": "solver",
              "type": "address"
            },
            {
              "internalType": "string[]",
              "name": "submissionHashes",
              "type": "string[]"
            },
            {
              "internalType": "uint256[]",
              "name": "submissionTimestamps",
              "type": "uint256[]"
            },
            {
              "internalType": "bool",
              "name": "reviewPending",
              "type": "bool"
            }
          ],
          "internalType": "struct TaskManager.Task",
          "name": "",
          "type": "tuple"
        }
      ],
      "stateMutability": "view",
      "type": "function",
      "constant": true
    },
    {
      "inputs": [
        {
          "internalType": "uint256",
          "name": "_taskId",
          "type": "uint256"
        },
        {
          "internalType": "address",
          "name": "_solver",
          "type": "address"
        }
      ],
      "name": "getRejectedRequestsBySolver",
      "outputs": [
        {
          "components": [
            {
              "internalType": "uint256",
              "name": "taskId",
              "type": "uint256"
            },
            {
              "internalType": "address",
              "name": "solver",
              "type": "address"
            },
            {
              "internalType": "string",
              "name": "status",
              "type": "string"
            },
            {
              "internalType": "address",
              "name": "creator",
              "type": "address"
            }
          ],
          "internalType": "struct TaskManager.TaskRequest[]",
          "name": "",
          "type": "tuple[]"
        }
      ],
      "stateMutability": "view",
      "type": "function",
      "constant": true
    },
    {
      "inputs": [],
      "name": "getMyRejectedRequests",
      "outputs": [
        {
          "internalType": "uint256[]",
          "name": "",
          "type": "uint256[]"
        }
      ],
      "stateMutability": "view",
      "type": "function",
      "constant": true
    }
  ],
  "bytecode": "0x6080604052600160055534801561001557600080fd5b50614717806100256000396000f3fe6080604052600436106101925760003560e01c80638d45fd82116100e7578063cd4eb5f711610095578063db2dc81a11610064578063db2dc81a146104f0578063f78d96c214610505578063fabbb6e214610525578063ff1153fd1461054557610192565b8063cd4eb5f714610490578063d5a849e9146103fa578063d6046723146104b0578063d9b7d154146104d057610192565b80638d45fd82146103ab5780639e72611f146103cb578063a1ce5291146103fa578063a4a268aa1461041a578063b35046231461042d578063b3832bf614610442578063bc045df81461047057610192565b8063774d3df511610144578063774d3df5146102b6578063776bae68146102d6578063779900b4146102f65780637d2064961461031e57806383aa4d6d1461034b57806387ca0d0b1461036b5780638c17f8981461038b57610192565b8063042736c8146101975780631d65e77e146101b9578063240eb69d146101ef5780632f7483d51461020f5780633684dc091461023c5780633d17d5d11461026957806353eea87514610289575b600080fd5b3480156101a357600080fd5b506101b76101b2366004613afc565b610565565b005b3480156101c557600080fd5b506101d96101d4366004613afc565b610703565b6040516101e6919061447c565b60405180910390f35b3480156101fb57600080fd5b506101b761020a366004613bd0565b610a6b565b34801561021b57600080fd5b5061022f61022a366004613afc565b610ba6565b6040516101e69190613e0d565b34801561024857600080fd5b5061025c610257366004613a42565b610d10565b6040516101e69190614572565b34801561027557600080fd5b506101b7610284366004613afc565b610d22565b34801561029557600080fd5b506102a96102a4366004613bd0565b610e54565b6040516101e69190613f7c565b3480156102c257600080fd5b506101b76102d1366004613b14565b610f0d565b3480156102e257600080fd5b506101b76102f1366004613b3f565b611164565b34801561030257600080fd5b5061030b611265565b6040516101e69796959493929190613eb9565b34801561032a57600080fd5b5061033e610339366004613a42565b61186b565b6040516101e69190613ea6565b34801561035757600080fd5b506101b7610366366004613b3f565b6119da565b34801561037757600080fd5b5061022f610386366004613b14565b611b4d565b34801561039757600080fd5b506101b76103a6366004613b83565b611f42565b3480156103b757600080fd5b5061033e6103c6366004613a42565b61203f565b3480156103d757600080fd5b506103eb6103e6366004613afc565b612543565b6040516101e693929190613f8f565b34801561040657600080fd5b5061025c610415366004613a42565b61271b565b6101b7610428366004613a8c565b612736565b34801561043957600080fd5b5061025c612a27565b34801561044e57600080fd5b5061046261045d366004613afc565b612a2d565b6040516101e6929190613ddf565b34801561047c57600080fd5b506101b761048b366004613b14565b612b7e565b34801561049c57600080fd5b506101b76104ab366004613a63565b612dc5565b3480156104bc57600080fd5b5061025c6104cb366004613a42565b612df6565b3480156104dc57600080fd5b506101b76104eb366004613afc565b612e08565b3480156104fc57600080fd5b5061033e61304d565b34801561051157600080fd5b506102a9610520366004613afc565b6132bb565b34801561053157600080fd5b5061022f610540366004613a42565b6132d4565b34801561055157600080fd5b5061033e610560366004613a42565b61370f565b600081815260016020526040902060068101546001600160a01b031633146105a85760405162461bcd60e51b815260040161059f9061429d565b60405180910390fd5b600a81015460ff166105cc5760405162461bcd60e51b815260040161059f90614387565b604080518082019091526008808252671058d8d95c1d195960c21b60209092019182526105fd91600584019161377b565b50600a8101805460ff1916905560048101546007808301546001600160a01b0316600090815260209190915260408120805490919061063d908490614619565b90915550506007810180546001600160a01b03908116600090815260086020908152604080832080546001810182559084529190922001859055915491517f715beb9146413ab4a58850861be8c63d74173bcdfc7f25f664f0a70e93b92952926106ab92869291169061457b565b60405180910390a1600781015460048201546040517fa7d2aa622c44e402b56298d201dc73286bc6db6801440365f0db90b5ced621c0926106f7926001600160a01b0390911691613dc6565b60405180910390a15050565b61070b6137ff565b600082815260016020818152604092839020835161016081019094528054845291820180549184019161073d9061465f565b80601f01602080910402602001604051908101604052809291908181526020018280546107699061465f565b80156107b65780601f1061078b576101008083540402835291602001916107b6565b820191906000526020600020905b81548152906001019060200180831161079957829003601f168201915b505050505081526020016002820180546107cf9061465f565b80601f01602080910402602001604051908101604052809291908181526020018280546107fb9061465f565b80156108485780601f1061081d57610100808354040283529160200191610848565b820191906000526020600020905b81548152906001019060200180831161082b57829003601f168201915b5050505050815260200160038201548152602001600482015481526020016005820180546108759061465f565b80601f01602080910402602001604051908101604052809291908181526020018280546108a19061465f565b80156108ee5780601f106108c3576101008083540402835291602001916108ee565b820191906000526020600020905b8154815290600101906020018083116108d157829003601f168201915b505050918352505060068201546001600160a01b039081166020808401919091526007840154909116604080840191909152600884018054825181850281018501909352808352606090940193919290919060009084015b828210156109f25783829060005260206000200180546109659061465f565b80601f01602080910402602001604051908101604052809291908181526020018280546109919061465f565b80156109de5780601f106109b3576101008083540402835291602001916109de565b820191906000526020600020905b8154815290600101906020018083116109c157829003601f168201915b505050505081526020019060010190610946565b50505050815260200160098201805480602002602001604051908101604052809291908181526020018280548015610a4957602002820191906000526020600020905b815481526020019060010190808311610a35575b5050509183525050600a919091015460ff16151560209091015290505b919050565b600082815260016020526040902060068101546001600160a01b03163314610aa55760405162461bcd60e51b815260040161059f906140ce565b600a81015460ff16610ac95760405162461bcd60e51b815260040161059f906142e0565b60078101546001600160a01b031660008181526003602052604090205415610b15576001600160a01b0381166000908152600360205260408120805491610b0f83614648565b91905055505b6007820180546001600160a01b03191690556040805180820190915260048082526327b832b760e11b6020909201918252610b5491600585019161377b565b50600a8201805460ff19169055600382018390556040517faaef6e71f9f214da5be1264a046941f4723a23100084c172759fc5d3239b015290610b98908690614572565b60405180910390a150505050565b6000818152600160205260409020600601546060906001600160a01b03163314610be25760405162461bcd60e51b815260040161059f906141d7565b600082815260026020908152604080832080548251818502810185019093528083529193909284015b82821015610d0557600084815260209081902060408051608081018252600486029092018054835260018101546001600160a01b03169383019390935260028301805492939291840191610c5e9061465f565b80601f0160208091040260200160405190810160405280929190818152602001828054610c8a9061465f565b8015610cd75780601f10610cac57610100808354040283529160200191610cd7565b820191906000526020600020905b815481529060010190602001808311610cba57829003601f168201915b5050509183525050600391909101546001600160a01b03166020918201529082526001929092019101610c0b565b505050509050919050565b60076020526000908152604090205481565b60008111610d425760405162461bcd60e51b815260040161059f90614201565b33600090815260076020526040902054811115610d715760405162461bcd60e51b815260040161059f9061426f565b3360009081526007602052604081208054839290610d90908490614631565b9250508190555080600080828254610da89190614631565b909155505060405160009033908390610dc090613dc3565b60006040518083038185875af1925050503d8060008114610dfd576040519150601f19603f3d011682016040523d82523d6000602084013e610e02565b606091505b5050905080610e235760405162461bcd60e51b815260040161059f90614040565b7f1d3eee4ca001cff39eec6ec7615aacf2f2bd61791273830728ba00ccbd6e133733836040516106f7929190613dc6565b60046020528160005260406000208181548110610e7057600080fd5b90600052602060002001600091509150508054610e8c9061465f565b80601f0160208091040260200160405190810160405280929190818152602001828054610eb89061465f565b8015610f055780601f10610eda57610100808354040283529160200191610f05565b820191906000526020600020905b815481529060010190602001808311610ee857829003601f168201915b505050505081565b6005548210610f2e5760405162461bcd60e51b815260040161059f90614145565b6000828152600160205260409020600601546001600160a01b03163314610f675760405162461bcd60e51b815260040161059f906140ce565b600082815260026020526040812090805b825481101561114057836001600160a01b0316838281548110610fab57634e487b7160e01b600052603260045260246000fd5b60009182526020909120600160049092020101546001600160a01b031614801561103957507f4be840e351422c3b302abb79aa7db05560ead7e387e413320822a342fca3f54e83828154811061101157634e487b7160e01b600052603260045260246000fd5b906000526020600020906004020160020160405161102f9190613d28565b6040518091039020145b1561112e576040518060400160405280600881526020016714995a9958dd195960c21b81525083828154811061107f57634e487b7160e01b600052603260045260246000fd5b906000526020600020906004020160020190805190602001906110a392919061377b565b506001600160a01b038416600090815260036020526040902054156110ec576001600160a01b03841660009081526003602052604081208054916110e683614648565b91905055505b7f4fc4487482a7efaa6e42e003a7e5a39431f8b902c2e27a00b27a50bb7922f695858560405161111d92919061457b565b60405180910390a160019150611140565b806111388161469a565b915050610f78565b508061115e5760405162461bcd60e51b815260040161059f906143c8565b50505050565b600082815260016020526040902060078101546001600160a01b0316331461119e5760405162461bcd60e51b815260040161059f90614238565b600a8101805460ff191660019081179091556008820180549182018155600090815260209081902084516111d993919091019185019061377b565b5060098082018054600181018255600091825260209182902042910155604080518082019091528281526814dd589b5a5d1d195960ba1b91019081526112249160058401919061377b565b507f5c75753b2ad4d3a2896a9417bb557fa1609d1ab0775fd3fda74b414c91e0858f838342604051611258939291906145e4565b60405180910390a1505050565b6060806060806060806060600060068054905090506000816001600160401b038111156112a257634e487b7160e01b600052604160045260246000fd5b6040519080825280602002602001820160405280156112cb578160200160208202803683370190505b5090506000826001600160401b038111156112f657634e487b7160e01b600052604160045260246000fd5b60405190808252806020026020018201604052801561132957816020015b60608152602001906001900390816113145790505b5090506000836001600160401b0381111561135457634e487b7160e01b600052604160045260246000fd5b60405190808252806020026020018201604052801561137d578160200160208202803683370190505b5090506000846001600160401b038111156113a857634e487b7160e01b600052604160045260246000fd5b6040519080825280602002602001820160405280156113d1578160200160208202803683370190505b5090506000856001600160401b038111156113fc57634e487b7160e01b600052604160045260246000fd5b60405190808252806020026020018201604052801561142f57816020015b606081526020019060019003908161141a5790505b5090506000866001600160401b0381111561145a57634e487b7160e01b600052604160045260246000fd5b604051908082528060200260200182016040528015611483578160200160208202803683370190505b5090506000876001600160401b038111156114ae57634e487b7160e01b600052604160045260246000fd5b6040519080825280602002602001820160405280156114e157816020015b60608152602001906001900390816114cc5790505b50905060005b88811015611853576000600160006006848154811061151657634e487b7160e01b600052603260045260246000fd5b906000526020600020015481526020019081526020016000209050806000015489838151811061155657634e487b7160e01b600052603260045260246000fd5b6020026020010181815250508060010180546115719061465f565b80601f016020809104026020016040519081016040528092919081815260200182805461159d9061465f565b80156115ea5780601f106115bf576101008083540402835291602001916115ea565b820191906000526020600020905b8154815290600101906020018083116115cd57829003601f168201915b505050505088838151811061160f57634e487b7160e01b600052603260045260246000fd5b6020026020010181905250806003015487838151811061163f57634e487b7160e01b600052603260045260246000fd5b602002602001018181525050806004015486838151811061167057634e487b7160e01b600052603260045260246000fd5b60200260200101818152505080600501805461168b9061465f565b80601f01602080910402602001604051908101604052809291908181526020018280546116b79061465f565b80156117045780601f106116d957610100808354040283529160200191611704565b820191906000526020600020905b8154815290600101906020018083116116e757829003601f168201915b505050505085838151811061172957634e487b7160e01b600052603260045260246000fd5b6020908102919091010152600681015484516001600160a01b039091169085908490811061176757634e487b7160e01b600052603260045260246000fd5b60200260200101906001600160a01b031690816001600160a01b0316815250508060020180546117969061465f565b80601f01602080910402602001604051908101604052809291908181526020018280546117c29061465f565b801561180f5780601f106117e45761010080835404028352916020019161180f565b820191906000526020600020905b8154815290600101906020018083116117f257829003601f168201915b505050505083838151811061183457634e487b7160e01b600052603260045260246000fd5b602002602001018190525050808061184b9061469a565b9150506114e7565b50959e949d50929b5090995097509550909350915050565b6060600060015b6005548110156118de576000818152600160205260409020600601546001600160a01b0385811691161480156118b957506000818152600160205260409020600a015460ff165b156118cc57816118c88161469a565b9250505b806118d68161469a565b915050611872565b506000816001600160401b0381111561190757634e487b7160e01b600052604160045260246000fd5b604051908082528060200260200182016040528015611930578160200160208202803683370190505b509050600060015b6005548110156119d0576000818152600160205260409020600601546001600160a01b03878116911614801561197f57506000818152600160205260409020600a015460ff165b156119be57808383815181106119a557634e487b7160e01b600052603260045260246000fd5b6020908102919091010152816119ba8161469a565b9250505b806119c88161469a565b915050611938565b5090949350505050565b600082815260016020908152604091829020825180840190935260088352671058d8d95c1d195960c21b928201929092528251908301207f71fb55c0cb0fd74783d23c772b2f895cb0c286e8e0fab4f642555d8b1ffce2521415611a695760068101546001600160a01b03163314611a645760405162461bcd60e51b815260040161059f90613ff6565b611a95565b60078101546001600160a01b03163314611a955760405162461bcd60e51b815260040161059f90614346565b8151611aaa906005830190602085019061377b565b506040805180820190915260088152671058d8d95c1d195960c21b6020918201528251908301207f71fb55c0cb0fd74783d23c772b2f895cb0c286e8e0fab4f642555d8b1ffce2521415611b485760078101546001600160a01b031660009081526003602052604090205415611b485760078101546001600160a01b03166000908152600360205260408120805491611b4283614648565b91905055505b505050565b60606005548310611b705760405162461bcd60e51b815260040161059f90614145565b6000838152600160205260409020600601546001600160a01b03163314611ba95760405162461bcd60e51b815260040161059f9061444d565b600083815260026020526040812090805b8254811015611ca057846001600160a01b0316838281548110611bed57634e487b7160e01b600052603260045260246000fd5b60009182526020909120600160049092020101546001600160a01b0316148015611c7b57507f1d6da6841dcfb6ef74e75eb3ebc56df589ad1a29d3f3e29120ea311982da63c9838281548110611c5357634e487b7160e01b600052603260045260246000fd5b9060005260206000209060040201600201604051611c719190613d28565b6040518091039020145b15611c8e5781611c8a8161469a565b9250505b80611c988161469a565b915050611bba565b506000816001600160401b03811115611cc957634e487b7160e01b600052604160045260246000fd5b604051908082528060200260200182016040528015611d0257816020015b611cef61386d565b815260200190600190039081611ce75790505b5090506000805b8454811015611f3657866001600160a01b0316858281548110611d3c57634e487b7160e01b600052603260045260246000fd5b60009182526020909120600160049092020101546001600160a01b0316148015611dca57507f1d6da6841dcfb6ef74e75eb3ebc56df589ad1a29d3f3e29120ea311982da63c9858281548110611da257634e487b7160e01b600052603260045260246000fd5b9060005260206000209060040201600201604051611dc09190613d28565b6040518091039020145b15611f2457848181548110611def57634e487b7160e01b600052603260045260246000fd5b9060005260206000209060040201604051806080016040529081600082015481526020016001820160009054906101000a90046001600160a01b03166001600160a01b03166001600160a01b03168152602001600282018054611e519061465f565b80601f0160208091040260200160405190810160405280929190818152602001828054611e7d9061465f565b8015611eca5780601f10611e9f57610100808354040283529160200191611eca565b820191906000526020600020905b815481529060010190602001808311611ead57829003601f168201915b5050509183525050600391909101546001600160a01b03166020909101528351849084908110611f0a57634e487b7160e01b600052603260045260246000fd5b60200260200101819052508180611f209061469a565b9250505b80611f2e8161469a565b915050611d09565b50909695505050505050565b600083815260016020526040902060068101546001600160a01b03163314611f7c5760405162461bcd60e51b815260040161059f906140ff565b600a81015460ff16611fa05760405162461bcd60e51b815260040161059f9061440c565b604080518082019091526011808252702732b2b21026b7b234b334b1b0ba34b7b760791b6020909201918252611fda91600584019161377b565b50600a8101805460ff19169055600381018290556000848152600960209081526040909120845161200d9286019061377b565b507fa102e0895f57190231d5baeed40cbe7c647b2bb3dd230ac73c41354060556f4f8484604051610b98929190614592565b6060600060015b60055481101561228257600081815260026020908152604080832080548251818502810185019093528083529192909190849084015b8282101561217657600084815260209081902060408051608081018252600486029092018054835260018101546001600160a01b031693830193909352600283018054929392918401916120cf9061465f565b80601f01602080910402602001604051908101604052809291908181526020018280546120fb9061465f565b80156121485780601f1061211d57610100808354040283529160200191612148565b820191906000526020600020905b81548152906001019060200180831161212b57829003601f168201915b5050509183525050600391909101546001600160a01b0316602091820152908252600192909201910161207c565b50505050905060005b815181101561226d57856001600160a01b03168282815181106121b257634e487b7160e01b600052603260045260246000fd5b6020026020010151602001516001600160a01b03161480156122485750604080518082019091526008815267105c1c1c9bdd995960c21b60209091015281517f2d894534fcdd19a4095fe0596a431ecd8cbe219bf4d17bc3ee9f8783a260daeb9083908390811061223357634e487b7160e01b600052603260045260246000fd5b60200260200101516040015180519060200120145b1561225b57836122578161469a565b9450505b806122658161469a565b91505061217f565b5050808061227a9061469a565b915050612046565b506000816001600160401b038111156122ab57634e487b7160e01b600052604160045260246000fd5b6040519080825280602002602001820160405280156122d4578160200160208202803683370190505b509050600060015b6005548110156119d057600081815260026020908152604080832080548251818502810185019093528083529192909190849084015b8282101561240c57600084815260209081902060408051608081018252600486029092018054835260018101546001600160a01b031693830193909352600283018054929392918401916123659061465f565b80601f01602080910402602001604051908101604052809291908181526020018280546123919061465f565b80156123de5780601f106123b3576101008083540402835291602001916123de565b820191906000526020600020905b8154815290600101906020018083116123c157829003601f168201915b5050509183525050600391909101546001600160a01b03166020918201529082526001929092019101612312565b50505050905060005b815181101561252e57876001600160a01b031682828151811061244857634e487b7160e01b600052603260045260246000fd5b6020026020010151602001516001600160a01b03161480156124de5750604080518082019091526008815267105c1c1c9bdd995960c21b60209091015281517f2d894534fcdd19a4095fe0596a431ecd8cbe219bf4d17bc3ee9f8783a260daeb908390839081106124c957634e487b7160e01b600052603260045260246000fd5b60200260200101516040015180519060200120145b1561251c578285856124ef8161469a565b96508151811061250f57634e487b7160e01b600052603260045260246000fd5b6020026020010181815250505b806125268161469a565b915050612415565b5050808061253b9061469a565b9150506122dc565b600081815260016020526040812060068101546060929183916001600160a01b031633146125835760405162461bcd60e51b815260040161059f906141d7565b600a81015460ff166125a75760405162461bcd60e51b815260040161059f90614387565b60078101546008820180546001808501936001600160a01b031692916125cd9190614631565b815481106125eb57634e487b7160e01b600052603260045260246000fd5b906000526020600020018280546126019061465f565b80601f016020809104026020016040519081016040528092919081815260200182805461262d9061465f565b801561267a5780601f1061264f5761010080835404028352916020019161267a565b820191906000526020600020905b81548152906001019060200180831161265d57829003601f168201915b5050505050925080805461268d9061465f565b80601f01602080910402602001604051908101604052809291908181526020018280546126b99061465f565b80156127065780601f106126db57610100808354040283529160200191612706565b820191906000526020600020905b8154815290600101906020018083116126e957829003601f168201915b50505050509050935093509350509193909250565b6001600160a01b031660009081526007602052604090205490565b4282116127555760405162461bcd60e51b815260040161059f90614069565b803410156127755760405162461bcd60e51b815260040161059f90614311565b60405180610160016040528060055481526020018581526020018481526020018381526020018281526020016040518060400160405280600481526020016327b832b760e11b8152508152602001336001600160a01b0316815260200160006001600160a01b0316815260200160006001600160401b0381111561280957634e487b7160e01b600052604160045260246000fd5b60405190808252806020026020018201604052801561283c57816020015b60608152602001906001900390816128275790505b508152602001600060405190808252806020026020018201604052801561286d578160200160208202803683370190505b508152600060209182018190526005548152600180835260409091208351815583830151805191936128a49385019291019061377b565b50604082015180516128c091600284019160209091019061377b565b50606082015160038201556080820151600482015560a082015180516128f091600584019160209091019061377b565b5060c08201516006820180546001600160a01b039283166001600160a01b03199182161790915560e084015160078401805491909316911617905561010082015180516129479160088401916020909101906138a7565b506101208201518051612964916009840191602090910190613900565b506101409190910151600a909101805460ff1916911515919091179055600080548291908190612995908490614619565b9091555050600554600680546001810182556000919091527ff652222313e28459528d920b65115c16c04f3efc82aaedc97be59f3f377c0d3f018190556040517fdc691e972cb25fd6e968744b5a6416d42a052ac1305e3b7ed6777b621304b7f291612a0491879033906145b3565b60405180910390a160058054906000612a1c8361469a565b919050555050505050565b60005481565b6060806000600160008581526020019081526020016000209050806008018160090181805480602002602001604051908101604052809291908181526020016000905b82821015612b1c578382906000526020600020018054612a8f9061465f565b80601f0160208091040260200160405190810160405280929190818152602001828054612abb9061465f565b8015612b085780601f10612add57610100808354040283529160200191612b08565b820191906000526020600020905b815481529060010190602001808311612aeb57829003601f168201915b505050505081526020019060010190612a70565b50505050915080805480602002602001604051908101604052809291908181526020018280548015612b6d57602002820191906000526020600020905b815481526020019060010190808311612b59575b505050505090509250925050915091565b6005548210612b9f5760405162461bcd60e51b815260040161059f90614145565b6000828152600160205260409020600601546001600160a01b03163314612bd85760405162461bcd60e51b815260040161059f9061416e565b600082815260026020526040812090805b825481101561114057836001600160a01b0316838281548110612c1c57634e487b7160e01b600052603260045260246000fd5b60009182526020909120600160049092020101546001600160a01b0316148015612caa57507f4be840e351422c3b302abb79aa7db05560ead7e387e413320822a342fca3f54e838281548110612c8257634e487b7160e01b600052603260045260246000fd5b9060005260206000209060040201600201604051612ca09190613d28565b6040518091039020145b15612db35760405180604001604052806008815260200167105c1c1c9bdd995960c21b815250838281548110612cf057634e487b7160e01b600052603260045260246000fd5b90600052602060002090600402016002019080519060200190612d1492919061377b565b506040805180820182526008815267105cdcda59db995960c21b602080830191825260008981526001909152929092209051612d56926005909201919061377b565b506000858152600160205260409081902060070180546001600160a01b0319166001600160a01b038716179055517f3933418f4c755f971abdb960c3cb593a695bfb808edff578dc64982e3138f0d49061111d908790879061457b565b80612dbd8161469a565b915050612be9565b6001600160a01b03821660009081526007602052604081208054839290612ded908490614619565b90915550505050565b60036020526000908152604090205481565b6005548110612e295760405162461bcd60e51b815260040161059f90614145565b6000818152600160205260409020600601546001600160a01b0316331415612e635760405162461bcd60e51b815260040161059f906140a0565b3360009081526003602081905260409091205410612e935760405162461bcd60e51b815260040161059f906141a0565b6000818152600260205260408120905b8154811015612f2357336001600160a01b0316828281548110612ed657634e487b7160e01b600052603260045260246000fd5b60009182526020909120600160049092020101546001600160a01b03161415612f115760405162461bcd60e51b815260040161059f90613fcd565b80612f1b8161469a565b915050612ea3565b50600082815260026020818152604080842081516080810183528781523381850190815283518085018552600781526650656e64696e6760c81b818701528285019081528988526001808752948820600601546001600160a01b03908116606085015284548087018655948952978690208351600490950201938455905193830180546001600160a01b0319169490971693909317909555905180519193612fd1939085019291019061377b565b5060609190910151600391820180546001600160a01b0319166001600160a01b03909216919091179055336000908152602091909152604081208054916130178361469a565b91905055507f7f4b15de145103c2f48b4429df1c147497eb30d764058cdbdd0e7b7ad82d8fac82336040516106f792919061457b565b606060006005546001600160401b0381111561307957634e487b7160e01b600052604160045260246000fd5b6040519080825280602002602001820160405280156130a2578160200160208202803683370190505b5090506000805b6005548110156131ee576000818152600260205260408120905b81548110156131d957336001600160a01b03168282815481106130f657634e487b7160e01b600052603260045260246000fd5b60009182526020909120600160049092020101546001600160a01b031614801561318457507f1d6da6841dcfb6ef74e75eb3ebc56df589ad1a29d3f3e29120ea311982da63c982828154811061315c57634e487b7160e01b600052603260045260246000fd5b906000526020600020906004020160020160405161317a9190613d28565b6040518091039020145b156131c757828585815181106131aa57634e487b7160e01b600052603260045260246000fd5b6020908102919091010152836131bf8161469a565b9450506131d9565b806131d18161469a565b9150506130c3565b505080806131e69061469a565b9150506130a9565b506000816001600160401b0381111561321757634e487b7160e01b600052604160045260246000fd5b604051908082528060200260200182016040528015613240578160200160208202803683370190505b50905060005b828110156132b35783818151811061326e57634e487b7160e01b600052603260045260246000fd5b602002602001015182828151811061329657634e487b7160e01b600052603260045260246000fd5b6020908102919091010152806132ab8161469a565b915050613246565b509250505090565b60096020526000908152604090208054610e8c9061465f565b6060600060015b60055481101561349757600081815260026020908152604080832080548251818502810185019093528083529192909190849084015b8282101561340b57600084815260209081902060408051608081018252600486029092018054835260018101546001600160a01b031693830193909352600283018054929392918401916133649061465f565b80601f01602080910402602001604051908101604052809291908181526020018280546133909061465f565b80156133dd5780601f106133b2576101008083540402835291602001916133dd565b820191906000526020600020905b8154815290600101906020018083116133c057829003601f168201915b5050509183525050600391909101546001600160a01b03166020918201529082526001929092019101613311565b50505050905060005b815181101561348257856001600160a01b031682828151811061344757634e487b7160e01b600052603260045260246000fd5b6020026020010151606001516001600160a01b03161415613470578361346c8161469a565b9450505b8061347a8161469a565b915050613414565b5050808061348f9061469a565b9150506132db565b506000816001600160401b038111156134c057634e487b7160e01b600052604160045260246000fd5b6040519080825280602002602001820160405280156134f957816020015b6134e661386d565b8152602001906001900390816134de5790505b509050600060015b6005548110156119d057600081815260026020908152604080832080548251818502810185019093528083529192909190849084015b8282101561363157600084815260209081902060408051608081018252600486029092018054835260018101546001600160a01b0316938301939093526002830180549293929184019161358a9061465f565b80601f01602080910402602001604051908101604052809291908181526020018280546135b69061465f565b80156136035780601f106135d857610100808354040283529160200191613603565b820191906000526020600020905b8154815290600101906020018083116135e657829003601f168201915b5050509183525050600391909101546001600160a01b03166020918201529082526001929092019101613537565b50505050905060005b81518110156136fa57876001600160a01b031682828151811061366d57634e487b7160e01b600052603260045260246000fd5b6020026020010151606001516001600160a01b031614156136e8578181815181106136a857634e487b7160e01b600052603260045260246000fd5b60200260200101518585806136bc9061469a565b9650815181106136dc57634e487b7160e01b600052603260045260246000fd5b60200260200101819052505b806136f28161469a565b91505061363a565b505080806137079061469a565b915050613501565b6001600160a01b03811660009081526008602090815260409182902080548351818402810184019094528084526060939283018282801561376f57602002820191906000526020600020905b81548152602001906001019080831161375b575b50505050509050919050565b8280546137879061465f565b90600052602060002090601f0160209004810192826137a957600085556137ef565b82601f106137c257805160ff19168380011785556137ef565b828001600101855582156137ef579182015b828111156137ef5782518255916020019190600101906137d4565b506137fb92915061393a565b5090565b60405180610160016040528060008152602001606081526020016060815260200160008152602001600081526020016060815260200160006001600160a01b0316815260200160006001600160a01b0316815260200160608152602001606081526020016000151581525090565b60405180608001604052806000815260200160006001600160a01b031681526020016060815260200160006001600160a01b031681525090565b8280548282559060005260206000209081019282156138f4579160200282015b828111156138f457825180516138e491849160209091019061377b565b50916020019190600101906138c7565b506137fb92915061394f565b8280548282559060005260206000209081019282156137ef57916020028201828111156137ef5782518255916020019190600101906137d4565b5b808211156137fb576000815560010161393b565b808211156137fb576000613963828261396c565b5060010161394f565b5080546139789061465f565b6000825580601f1061398a57506139a8565b601f0160209004906000526020600020908101906139a8919061393a565b50565b80356001600160a01b0381168114610a6657600080fd5b600082601f8301126139d2578081fd5b81356001600160401b03808211156139ec576139ec6146cb565b604051601f8301601f191681016020018281118282101715613a1057613a106146cb565b604052828152848301602001861015613a27578384fd5b82602086016020830137918201602001929092529392505050565b600060208284031215613a53578081fd5b613a5c826139ab565b9392505050565b60008060408385031215613a75578081fd5b613a7e836139ab565b946020939093013593505050565b60008060008060808587031215613aa1578182fd5b84356001600160401b0380821115613ab7578384fd5b613ac3888389016139c2565b95506020870135915080821115613ad8578384fd5b50613ae5878288016139c2565b949794965050505060408301359260600135919050565b600060208284031215613b0d578081fd5b5035919050565b60008060408385031215613b26578182fd5b82359150613b36602084016139ab565b90509250929050565b60008060408385031215613b51578182fd5b8235915060208301356001600160401b03811115613b6d578182fd5b613b79858286016139c2565b9150509250929050565b600080600060608486031215613b97578283fd5b8335925060208401356001600160401b03811115613bb3578283fd5b613bbf868287016139c2565b925050604084013590509250925092565b60008060408385031215613be2578182fd5b50508035926020909101359150565b6001600160a01b03169052565b60008282518085526020808601955080818302840101818601855b84811015613c4757601f19868403018952613c35838351613cdd565b98840198925090830190600101613c19565b5090979650505050505050565b60008282518085526020808601955080818302840101818601855b84811015613c4757601f19868403018952613c8b838351613cdd565b98840198925090830190600101613c6f565b6000815180845260208085019450808401835b83811015613ccc57815187529582019590820190600101613cb0565b509495945050505050565b15159052565b60008151808452815b81811015613d0257602081850181015186830182015201613ce6565b81811115613d135782602083870101525b50601f01601f19169290920160200192915050565b8154600090819060028104600180831680613d4457607f831692505b6020808410821415613d6457634e487b7160e01b87526022600452602487fd5b818015613d785760018114613d8957613db5565b60ff19861689528489019650613db5565b613d928a61460d565b885b86811015613dad5781548b820152908501908301613d94565b505084890196505b509498975050505050505050565b90565b6001600160a01b03929092168252602082015260400190565b600060408252613df26040830185613c54565b8281036020840152613e048185613c9d565b95945050505050565b60208082528251828201819052600091906040908185019080840286018301878501865b83811015613e9857888303603f19018552815180518452878101516001600160a01b039081168986015287820151608089870181905291613e7483880183613cdd565b60609485015190911696909301959095525094870194925090860190600101613e31565b509098975050505050505050565b600060208252613a5c6020830184613c9d565b600060e08252613ecc60e083018a613c9d565b602083820381850152613edf828b613c54565b91508382036040850152613ef3828a613c9d565b91508382036060850152613f078289613c9d565b91508382036080850152613f1b8288613c54565b84810360a08601528651808252828801935090820190845b81811015613f585784516001600160a01b031683529383019391830191600101613f33565b505084810360c0860152613f6c8187613c54565b9c9b505050505050505050505050565b600060208252613a5c6020830184613cdd565b600060608252613fa26060830186613cdd565b6001600160a01b03851660208401528281036040840152613fc38185613cdd565b9695505050505050565b6020808252600f908201526e105b1c9958591e48185c1c1b1a5959608a1b604082015260600190565b6020808252602a908201527f4f6e6c79207468652063726561746f722063616e20616363657074207468652060408201526939bab136b4b9b9b4b7b760b11b606082015260800190565b6020808252600f908201526e151c985b9cd9995c8819985a5b1959608a1b604082015260600190565b6020808252601b908201527f446561646c696e65206d75737420626520696e20667574757265210000000000604082015260600190565b60208082526014908201527343726561746f722063616e6e6f74206170706c7960601b604082015260600190565b60208082526017908201527613db9b1e4818dc99585d1bdc8818d85b881c995a9958dd604a1b604082015260600190565b60208082526026908201527f4f6e6c792063726561746f722063616e2073756767657374206d6f64696669636040820152656174696f6e7360d01b606082015260800190565b6020808252600f908201526e125b9d985b1a59081d185cdac81251608a1b604082015260600190565b6020808252601890820152774f6e6c792063726561746f722063616e20617070726f766560401b604082015260600190565b6020808252601f908201527f4d61782033207461736b206170706c69636174696f6e7320616c6c6f77656400604082015260600190565b60208082526010908201526f2737ba103a30b9b59031b932b0ba37b960811b604082015260600190565b6020808252601d908201527f416d6f756e74206d7573742062652067726561746572207468616e2030000000604082015260600190565b6020808252601f908201527f4f6e6c792061737369676e656420736f6c7665722063616e207375626d697400604082015260600190565b602080825260149082015273496e73756666696369656e742062616c616e636560601b604082015260600190565b60208082526023908201527f4f6e6c792063726561746f722063616e20617070726f7665207375626d69737360408201526234b7b760e91b606082015260800190565b602080825260179082015276139bc81cdd589b5a5cdcda5bdb881d1bc81c995a9958dd604a1b604082015260600190565b6020808252818101527f496e73756666696369656e74204554482073656e7420666f7220726577617264604082015260600190565b60208082526021908201527f4f6e6c792074686520736f6c7665722063616e207570646174652073746174756040820152607360f81b606082015260800190565b60208082526021908201527f4e6f207461736b207375626d697373696f6e2070656e64696e672072657669656040820152607760f81b606082015260800190565b60208082526024908201527f52657175657374206e6f7420666f756e64206f7220616c72656164792068616e604082015263191b195960e21b606082015260800190565b60208082526021908201527f5461736b206d757374206265207375626d697474656420666f722072657669656040820152607760f81b606082015260800190565b6020808252601590820152744f6e6c792063726561746f722063616e207669657760581b604082015260600190565b6000602082528251602083015260208301516101608060408501526144a5610180850183613cdd565b91506040850151601f19808685030160608701526144c38483613cdd565b935060608701516080870152608087015160a087015260a08701519150808685030160c08701526144f48483613cdd565b935060c0870151915061450a60e0870183613bf1565b60e0870151915061010061452081880184613bf1565b8088015192505061012081878603018188015261453d8584613bfe565b94508088015192505061014081878603018188015261455c8584613c9d565b945080880151925050506119d082860182613cd7565b90815260200190565b9182526001600160a01b0316602082015260400190565b6000838252604060208301526145ab6040830184613cdd565b949350505050565b6000848252606060208301526145cc6060830185613cdd565b905060018060a01b0383166040830152949350505050565b6000848252606060208301526145fd6060830185613cdd565b9050826040830152949350505050565b60009081526020902090565b6000821982111561462c5761462c6146b5565b500190565b600082821015614643576146436146b5565b500390565b600081614657576146576146b5565b506000190190565b60028104600182168061467357607f821691505b6020821081141561469457634e487b7160e01b600052602260045260246000fd5b50919050565b60006000198214156146ae576146ae6146b5565b5060010190565b634e487b7160e01b600052601160045260246000fd5b634e487b7160e01b600052604160045260246000fdfea2646970667358221220ccee598a60146d5d3e962afc2d77fea560a08a789cf6ba7c918834aa114415ae64736f6c63430008000033",
  "immutableReferences": {},
  "source": "// SPDX-License-Identifier: MIT\r\n\r\npragma solidity ^0.8.0;\r\n\r\ncontract TaskManager {\r\n    struct Task {\r\n        uint256 taskId;\r\n        string taskName;\r\n        string taskDescription;\r\n        uint256 deadline;\r\n        uint256 rewards;\r\n        string status;\r\n        address creator;\r\n        address solver;\r\n        string[] submissionHashes;\r\n        uint256[] submissionTimestamps;\r\n        bool reviewPending;\r\n\r\n    }\r\n\r\n    struct TaskRequest {\r\n        uint256 taskId;\r\n        address solver;\r\n        string status; // \"Pending\", \"Approved\", \"Rejected\"\r\n        address creator;\r\n\r\n    }\r\n\r\n    uint256 public totalRewardsHeld;\r\n    \r\n\r\n    mapping(uint256 => Task) private tasks;\r\n    mapping(uint256 => TaskRequest[]) private taskRequests;\r\n    mapping(address => uint256) public solverTaskCount;\r\n    mapping(uint => string[]) public taskSubmissions;\r\n    uint256 private nextTaskId = 1;\r\n    uint256[] private allTaskIds;\r\n    mapping(address => uint256) public solverRewardBalance;\r\n    mapping(address => uint256[]) private solverCompletedTasks;\r\n\r\n    event TaskCreated(uint256 taskId, string taskName, address creator);\r\n    event TaskApplied(uint256 taskId, address solver);\r\n    event TaskRequestApproved(uint256 taskId, address solver);\r\n    event TaskRequestRejected(uint256 taskId, address solver);\r\n    event TaskReviewApproved(uint256 taskId, address solver);\r\n    event TaskModificationSuggested(uint256 taskId, string message);\r\n    event TaskRejected(uint256 taskId);\r\n    event TaskRewardStored(address solver, uint256 reward);\r\n    event RewardWithdrawn(address solver, uint256 amount);\r\n\r\n    \r\n\r\n\r\n    // Create a new task\r\n  function createTask(\r\n    string memory _taskName, \r\n    string memory _taskDescription,\r\n    uint256 _deadlineTimestamp,\r\n    uint256 _rewards\r\n) public payable {  // Add payable\r\n    require(_deadlineTimestamp > block.timestamp, \"Deadline must be in future!\");\r\n    require(msg.value >= _rewards, \"Insufficient ETH sent for reward\");\r\n\r\n        tasks[nextTaskId] = Task({\r\n        taskId: nextTaskId,\r\n        taskName: _taskName,\r\n        taskDescription: _taskDescription,\r\n        deadline: _deadlineTimestamp,\r\n        rewards: _rewards,\r\n        status: \"Open\",\r\n        creator: msg.sender,\r\n        solver: address(0),\r\n        submissionHashes: new string [](0),\r\n        submissionTimestamps: new uint256 [](0),\r\n        reviewPending: false\r\n});\r\n\r\n        totalRewardsHeld += _rewards;\r\n        allTaskIds.push(nextTaskId);\r\n        emit TaskCreated(nextTaskId, _taskName, msg.sender);\r\n        nextTaskId++;\r\n    }\r\n\r\n    // Apply for a task\r\n    function applyForTask(uint256 _taskId) public {\r\n        require(_taskId < nextTaskId, \"Invalid task ID\");\r\n        require(msg.sender != tasks[_taskId].creator, \"Creator cannot apply\");\r\n        require(solverTaskCount[msg.sender] < 3, \"Max 3 task applications allowed\");\r\n\r\n        TaskRequest[] storage requests = taskRequests[_taskId];\r\n        for (uint i = 0; i < requests.length; i++) {\r\n            require(requests[i].solver != msg.sender, \"Already applied\");\r\n        }\r\n\r\n        taskRequests[_taskId].push(TaskRequest({\r\n            taskId: _taskId,\r\n            solver: msg.sender,\r\n            status: \"Pending\",\r\n            creator: tasks[_taskId].creator\r\n        }));\r\n\r\n        solverTaskCount[msg.sender]++;\r\n        emit TaskApplied(_taskId, msg.sender);\r\n    }\r\n\r\n    \r\n\r\nfunction approveRequest(uint256 _taskId, address _solver) public {\r\n    require(_taskId < nextTaskId, \"Invalid task ID\");\r\n    require(msg.sender == tasks[_taskId].creator, \"Only creator can approve\");\r\n\r\n    TaskRequest[] storage requests = taskRequests[_taskId];\r\n    bool found = false;\r\n\r\n    for (uint i = 0; i < requests.length; i++) {\r\n        if (\r\n            requests[i].solver == _solver &&\r\n            keccak256(bytes(requests[i].status)) == keccak256(\"Pending\")\r\n        ) {\r\n            requests[i].status = \"Approved\";\r\n\r\n            tasks[_taskId].status = \"Assigned\"; // ? Use clean status\r\n            tasks[_taskId].solver = _solver;\r\n\r\n            emit TaskRequestApproved(_taskId, _solver);\r\n            found = true;\r\n            break;\r\n        }\r\n    }\r\n\r\n    require(found, \"Request not found or already handled\");\r\n}\r\n\r\n\r\n    // Reject a solver's request\r\n    function rejectRequest(uint256 _taskId, address _solver) public {\r\n        require(_taskId < nextTaskId, \"Invalid task ID\");\r\n        require(msg.sender == tasks[_taskId].creator, \"Only creator can reject\");\r\n\r\n        TaskRequest[] storage requests = taskRequests[_taskId];\r\n        bool found = false;\r\n\r\n        for (uint i = 0; i < requests.length; i++) {\r\n            if (\r\n                requests[i].solver == _solver &&\r\n                keccak256(bytes(requests[i].status)) == keccak256(\"Pending\")\r\n            ) {\r\n                requests[i].status = \"Rejected\";\r\n                //  Free up the solver's slot\r\n            if (solverTaskCount[_solver] > 0) {\r\n                solverTaskCount[_solver]--;\r\n            }\r\n                emit TaskRequestRejected(_taskId, _solver);\r\n                found = true;\r\n                break;\r\n            }\r\n        }\r\n\r\n        require(found, \"Request not found or already handled\");\r\n    }\r\n\r\n    // View all tasks\r\n    function getAllTasks() public view returns (\r\n        uint256[] memory, string[] memory, uint256[] memory, uint256[] memory, string[] memory, address[] memory, string[] memory\r\n    ) {\r\n        uint256 length = allTaskIds.length;\r\n        uint256[] memory ids = new uint256[](length);\r\n        string[] memory names = new string[](length);\r\n        uint256[] memory deadlines = new uint256[](length);\r\n        uint256[] memory rewards = new uint256[](length);\r\n        string[] memory statuses = new string[](length);\r\n        address[] memory creators = new address[](length);\r\n        string[] memory descriptions = new string[](length);\r\n\r\n        for (uint256 i = 0; i < length; i++) {\r\n            Task storage task = tasks[allTaskIds[i]];\r\n            ids[i] = task.taskId;\r\n            names[i] = task.taskName;\r\n            deadlines[i] = task.deadline;\r\n            rewards[i] = task.rewards;\r\n            statuses[i] = task.status;\r\n            creators[i] = task.creator;\r\n            descriptions[i] = task.taskDescription;\r\n        }\r\n\r\n        return (ids, names, deadlines, rewards, statuses, creators, descriptions);\r\n    }\r\n\r\n    // View requests for a task\r\n    function getTaskRequestsForCreator(uint256 _taskId) public view returns (TaskRequest[] memory) {\r\n        require(msg.sender == tasks[_taskId].creator, \"Not task creator\");\r\n        return taskRequests[_taskId];\r\n    }\r\n\r\n    // Get all requests for a creator\r\n    function getAllRequestsForCreator(address _creator) public view returns (TaskRequest[] memory) {\r\n        uint256 total = 0;\r\n        for (uint256 i = 1; i < nextTaskId; i++) {\r\n            TaskRequest[] memory requests = taskRequests[i];\r\n            for (uint256 j = 0; j < requests.length; j++) {\r\n                if (requests[j].creator == _creator) {\r\n                    total++;\r\n                }\r\n            }\r\n        }\r\n\r\n        TaskRequest[] memory creatorRequests = new TaskRequest[](total);\r\n        uint256 index = 0;\r\n        for (uint256 i = 1; i < nextTaskId; i++) {\r\n            TaskRequest[] memory requests = taskRequests[i];\r\n            for (uint256 j = 0; j < requests.length; j++) {\r\n                if (requests[j].creator == _creator) {\r\n                    creatorRequests[index++] = requests[j];\r\n                }\r\n            }\r\n        }\r\n\r\n        return creatorRequests;\r\n    }\r\n\r\n    // Get approved tasks for a solver\r\n    function getApprovedTasksForSolver(address _solver) public view returns (uint256[] memory) {\r\n        uint256 taskCount = 0;\r\n\r\n        // Count how many tasks are approved for this solver\r\n        for (uint256 i = 1; i < nextTaskId; i++) {\r\n            TaskRequest[] memory requests = taskRequests[i];\r\n            for (uint256 j = 0; j < requests.length; j++) {\r\n                if (requests[j].solver == _solver && keccak256(bytes(requests[j].status)) == keccak256(bytes(\"Approved\"))) {\r\n                    taskCount++;\r\n                }\r\n            }\r\n        }\r\n\r\n        uint256[] memory approvedTasks = new uint256[](taskCount);\r\n        uint256 index = 0;\r\n\r\n        // Store the approved tasks for this solver\r\n        for (uint256 i = 1; i < nextTaskId; i++) {\r\n            TaskRequest[] memory requests = taskRequests[i];\r\n            for (uint256 j = 0; j < requests.length; j++) {\r\n                if (requests[j].solver == _solver && keccak256(bytes(requests[j].status)) == keccak256(bytes(\"Approved\"))) {\r\n                    approvedTasks[index++] = i;\r\n                }\r\n            }\r\n        }\r\n\r\n        return approvedTasks;\r\n    }\r\n\r\nevent TaskStatusUpdated(uint256 taskId, string newStatus);\r\n\r\nfunction updateTaskStatus(uint256 _taskId, string memory _newStatus) public {\r\n    Task storage task = tasks[_taskId];\r\n\r\n    // Creator can mark as \"Accepted\"\r\n    if (keccak256(bytes(_newStatus)) == keccak256(bytes(\"Accepted\"))) {\r\n        require(msg.sender == task.creator, \"Only the creator can accept the submission\");\r\n    } else {\r\n        // Solvers can update all other statuses\r\n        require(msg.sender == task.solver, \"Only the solver can update status\");\r\n    }\r\n\r\n    task.status = _newStatus;\r\n\r\n    //  Free up a solver slot if the task is marked as Accepted\r\n    if (keccak256(bytes(_newStatus)) == keccak256(bytes(\"Accepted\"))) {\r\n        if (solverTaskCount[task.solver] > 0) {\r\n            solverTaskCount[task.solver]--;\r\n        }\r\n    }\r\n}\r\n    // Helper: Convert address to string\r\n    function toAsciiString(address x) internal pure returns (string memory) {\r\n        bytes memory s = new bytes(42);\r\n        s[0] = \"0\";\r\n        s[1] = \"x\";\r\n        for (uint i = 0; i < 20; i++) {\r\n            bytes1 b = bytes1(uint8(uint(uint160(x)) / (2**(8*(19 - i)))));\r\n            bytes1 hi = bytes1(uint8(b) / 16);\r\n            bytes1 lo = bytes1(uint8(b) - 16 * uint8(hi));\r\n            s[2*i + 2] = char(hi);\r\n            s[2*i + 3] = char(lo);\r\n        }\r\n        return string(s);\r\n    }\r\n\r\n    event TaskSubmitted(uint256 taskId, string ipfsHash, uint256 timestamp);\r\n   \r\n  // Submit a task (solver submits work)\r\nfunction submitTask(uint256 _taskId, string memory _ipfsHash) public {\r\n    Task storage task = tasks[_taskId];\r\n    require(msg.sender == task.solver, \"Only assigned solver can submit\");\r\n    \r\n    // Set review pending flag and store submission\r\n    task.reviewPending = true; \r\n    task.submissionHashes.push(_ipfsHash);\r\n    task.submissionTimestamps.push(block.timestamp);\r\n    \r\n    // Update task status to \"Submitted\"\r\n    task.status = \"Submitted\";\r\n\r\n    emit TaskSubmitted(_taskId, _ipfsHash, block.timestamp);\r\n}\r\n\r\n// Function to get the reward balance for a solver\r\nfunction getSolverReward(address _solver) public view returns (uint256) {\r\n    return solverRewardBalance[_solver];  // Return the stored reward balance for the solver\r\n}\r\n\r\n// Get all tasks pending review for a creator\r\n    function getReviewTasksForCreator(uint256 _taskId) public view returns (string memory, address, string memory) {\r\n        Task storage task = tasks[_taskId];\r\n        require(msg.sender == task.creator, \"Not task creator\");\r\n        require(task.reviewPending, \"No task submission pending review\");\r\n\r\n        return (\r\n            task.taskName,\r\n            task.solver,\r\n            task.submissionHashes[task.submissionHashes.length - 1]  // Latest submission hash\r\n        );\r\n    }\r\n\r\n    function getSubmittedTasksForCreator(address _creator) public view returns (uint256[] memory) {\r\n    uint256 count = 0;\r\n    for (uint256 i = 1; i < nextTaskId; i++) {\r\n        if (tasks[i].creator == _creator && tasks[i].reviewPending) {\r\n            count++;\r\n        }\r\n    }\r\n\r\n    uint256[] memory submittedTasks = new uint256[](count);\r\n    uint256 index = 0;\r\n\r\n    for (uint256 i = 1; i < nextTaskId; i++) {\r\n        if (tasks[i].creator == _creator && tasks[i].reviewPending) {\r\n            submittedTasks[index] = i;\r\n            index++;\r\n        }\r\n    }\r\n\r\n    return submittedTasks;\r\n}\r\n\r\n\r\n    // Review and approve task submission\r\nfunction approveTaskSubmission(uint256 _taskId) public {\r\n    Task storage task = tasks[_taskId];\r\n    require(msg.sender == task.creator, \"Only creator can approve submission\");\r\n    require(task.reviewPending, \"No task submission pending review\");\r\n\r\n    // Update task status to \"Completed\"\r\n    task.status = \"Accepted\";\r\n    task.reviewPending = false;\r\n\r\n    // Store the reward for the solver (without transferring it to their wallet)\r\n    solverRewardBalance[task.solver] += task.rewards; // Store the reward amount\r\n    solverCompletedTasks[task.solver].push(_taskId);\r\n        // Emit events for task approval and reward storage\r\n    emit TaskReviewApproved(_taskId, task.solver);\r\n    emit TaskRewardStored(task.solver, task.rewards);\r\n}\r\n\r\nfunction getCompletedTasksForSolver(address _solver) public view returns (uint256[] memory) {\r\n    return solverCompletedTasks[_solver];\r\n}\r\n\r\n// suggest modification\r\nmapping(uint256 => string) public modificationMessages;\r\n\r\nfunction suggestModificationWithDeadline(uint256 _taskId, string memory message, uint256 newDeadline) public {\r\n    Task storage task = tasks[_taskId];\r\n    require(msg.sender == task.creator, \"Only creator can suggest modifications\");\r\n    require(task.reviewPending, \"Task must be submitted for review\");\r\n\r\n    task.status = \"Need Modification\";\r\n    task.reviewPending = false;\r\n    task.deadline = newDeadline;\r\n    modificationMessages[_taskId] = message;\r\n\r\n    emit TaskModificationSuggested(_taskId, message);\r\n}\r\n\r\n\r\n\r\n // Review and reject task submission\r\nfunction rejectTaskSubmissionWithDeadline(uint256 _taskId, uint256 newDeadline) public {\r\n    Task storage task = tasks[_taskId];\r\n    require(msg.sender == task.creator, \"Only creator can reject\");\r\n    require(task.reviewPending, \"No submission to reject\");\r\n\r\n    //  Save solver address before clearing it\r\n    address solver = task.solver;\r\n\r\n    //  Free up the solver's slot\r\n    if (solverTaskCount[solver] > 0) {\r\n        solverTaskCount[solver]--;\r\n    }\r\n\r\n    task.solver = address(0);\r\n    task.status = \"Open\";\r\n    task.reviewPending = false;\r\n    task.deadline = newDeadline;\r\n\r\n    emit TaskRejected(_taskId);\r\n}\r\n\r\n\r\n\r\n   // Get the submission history for a task  \r\nfunction getSubmissionHistory(uint256 _taskId) public view returns (string[] memory, uint256[] memory) {\r\n    Task storage task = tasks[_taskId];\r\n    return (task.submissionHashes, task.submissionTimestamps);\r\n}\r\n\r\nfunction withdrawPartialReward(uint256 amount) public {\r\n    require(amount > 0, \"Amount must be greater than 0\");\r\n    require(amount <= solverRewardBalance[msg.sender], \"Insufficient balance\");\r\n    \r\n    // Deduct first to prevent reentrancy\r\n    solverRewardBalance[msg.sender] -= amount;\r\n    totalRewardsHeld -= amount;\r\n\r\n    (bool success, ) = payable(msg.sender).call{value: amount}(\"\");\r\n    require(success, \"Transfer failed\");\r\n\r\n    emit RewardWithdrawn(msg.sender, amount);\r\n}\r\n\r\nfunction getRewardBalance(address solver) public view returns (uint256) {\r\n    return solverRewardBalance[solver];\r\n}\r\n\r\nfunction rewardSolver(address solver, uint256 rewardAmount) public {\r\n    // Assuming the rewardAmount is in wei\r\n    solverRewardBalance[solver] += rewardAmount;\r\n}\r\n\r\n\r\n    function char(bytes1 b) internal pure returns (bytes1 c) {\r\n        if (uint8(b) < 10) return bytes1(uint8(b) + 0x30);\r\n        else return bytes1(uint8(b) + 0x57);\r\n    }\r\n\r\n    // (Optional) View one task for debug\r\n    function getTask(uint256 _taskId) public view returns (Task memory) {\r\n        return tasks[_taskId];\r\n    }\r\n\r\n\r\n\r\n\r\n\r\n\r\n\r\n\r\n// View function to fetch all rejected requests by a creator for a specific solver\r\nfunction getRejectedRequestsBySolver(uint256 _taskId, address _solver)\r\n    public\r\n    view\r\n    returns (TaskRequest[] memory)\r\n{\r\n    require(_taskId < nextTaskId, \"Invalid task ID\");\r\n    require(msg.sender == tasks[_taskId].creator, \"Only creator can view\");\r\n\r\n    TaskRequest[] storage requests = taskRequests[_taskId];\r\n    uint count = 0;\r\n\r\n    // First, count how many rejected requests exist for the solver\r\n    for (uint i = 0; i < requests.length; i++) {\r\n        if (\r\n            requests[i].solver == _solver &&\r\n            keccak256(bytes(requests[i].status)) == keccak256(\"Rejected\")\r\n        ) {\r\n            count++;\r\n        }\r\n    }\r\n\r\n    // Prepare the array with the correct size\r\n    TaskRequest[] memory rejectedRequests = new TaskRequest[](count);\r\n    uint index = 0;\r\n\r\n    // Populate the array\r\n    for (uint i = 0; i < requests.length; i++) {\r\n        if (\r\n            requests[i].solver == _solver &&\r\n            keccak256(bytes(requests[i].status)) == keccak256(\"Rejected\")\r\n        ) {\r\n            rejectedRequests[index] = requests[i];\r\n            index++;\r\n        }\r\n    }\r\n\r\n    return rejectedRequests;\r\n}\r\n\r\n\r\n\r\n\r\n\r\nfunction getMyRejectedRequests() public view returns (uint256[] memory) {\r\n    uint256[] memory tempIds = new uint256[](nextTaskId);\r\n    uint count = 0;\r\n\r\n    for (uint256 i = 0; i < nextTaskId; i++) {\r\n        TaskRequest[] storage requests = taskRequests[i];\r\n        for (uint j = 0; j < requests.length; j++) {\r\n            if (\r\n                requests[j].solver == msg.sender &&\r\n                keccak256(bytes(requests[j].status)) == keccak256(\"Rejected\")\r\n            ) {\r\n                tempIds[count] = i;\r\n                count++;\r\n                break; // avoid duplicate taskId if multiple rejected requests exist\r\n            }\r\n        }\r\n    }\r\n\r\n    // Copy only the filled part\r\n    uint256[] memory rejectedTaskIds = new uint256[](count);\r\n    for (uint i = 0; i < count; i++) {\r\n        rejectedTaskIds[i] = tempIds[i];\r\n    }\r\n\r\n    return rejectedTaskIds;\r\n}\r\n\r\n\r\n\r\n\r\n\r\n\r\n\r\n\r\n    \r\n\r\n}\r\n\r\n\r\n\r\n\r\n",
  "sourcePath": "C:\\Users\\Pratik\\Desktop\\taskallocation\\taskallocation\\contracts\\TaskManager.sol",
  "compiler": {
    "name": "solc",
    "version": "0.8.0+commit.c7dfd78e.Emscripten.clang"
  },
  "schemaVersion": "3.4.16",
  "updatedAt": "2025-06-06T12:24:03.641Z",
  "networkType": "ethereum",
  "devdoc": {
    "kind": "dev",
    "methods": {},
    "version": 1
  },
  "userdoc": {
    "kind": "user",
    "methods": {},
    "version": 1
  }
}